{
  "contractName": "EthrDIDRegistry",
  "abi": [
    {
      "anonymous": false,
      "inputs": [
        {
          "indexed": true,
          "internalType": "address",
          "name": "identity",
          "type": "address"
        },
        {
          "indexed": false,
          "internalType": "bytes32",
          "name": "name",
          "type": "bytes32"
        },
        {
          "indexed": false,
          "internalType": "bytes",
          "name": "value",
          "type": "bytes"
        },
        {
          "indexed": false,
          "internalType": "uint256",
          "name": "validTo",
          "type": "uint256"
        },
        {
          "indexed": false,
          "internalType": "uint256",
          "name": "previousChange",
          "type": "uint256"
        }
      ],
      "name": "DIDAttributeChanged",
      "type": "event"
    },
    {
      "anonymous": false,
      "inputs": [
        {
          "indexed": true,
          "internalType": "address",
          "name": "identity",
          "type": "address"
        },
        {
          "indexed": false,
          "internalType": "bytes32",
          "name": "delegateType",
          "type": "bytes32"
        },
        {
          "indexed": false,
          "internalType": "address",
          "name": "delegate",
          "type": "address"
        },
        {
          "indexed": false,
          "internalType": "uint256",
          "name": "validTo",
          "type": "uint256"
        },
        {
          "indexed": false,
          "internalType": "uint256",
          "name": "previousChange",
          "type": "uint256"
        }
      ],
      "name": "DIDDelegateChanged",
      "type": "event"
    },
    {
      "anonymous": false,
      "inputs": [
        {
          "indexed": true,
          "internalType": "address",
          "name": "identity",
          "type": "address"
        },
        {
          "indexed": false,
          "internalType": "address",
          "name": "owner",
          "type": "address"
        },
        {
          "indexed": false,
          "internalType": "uint256",
          "name": "previousChange",
          "type": "uint256"
        }
      ],
      "name": "DIDOwnerChanged",
      "type": "event"
    },
    {
      "inputs": [
        {
          "internalType": "address",
          "name": "",
          "type": "address"
        }
      ],
      "name": "changed",
      "outputs": [
        {
          "internalType": "uint256",
          "name": "",
          "type": "uint256"
        }
      ],
      "stateMutability": "view",
      "type": "function",
      "constant": true
    },
    {
      "inputs": [
        {
          "internalType": "address",
          "name": "",
          "type": "address"
        },
        {
          "internalType": "bytes32",
          "name": "",
          "type": "bytes32"
        },
        {
          "internalType": "address",
          "name": "",
          "type": "address"
        }
      ],
      "name": "delegates",
      "outputs": [
        {
          "internalType": "uint256",
          "name": "",
          "type": "uint256"
        }
      ],
      "stateMutability": "view",
      "type": "function",
      "constant": true
    },
    {
      "inputs": [
        {
          "internalType": "address",
          "name": "",
          "type": "address"
        }
      ],
      "name": "nonce",
      "outputs": [
        {
          "internalType": "uint256",
          "name": "",
          "type": "uint256"
        }
      ],
      "stateMutability": "view",
      "type": "function",
      "constant": true
    },
    {
      "inputs": [
        {
          "internalType": "address",
          "name": "",
          "type": "address"
        }
      ],
      "name": "owners",
      "outputs": [
        {
          "internalType": "address",
          "name": "",
          "type": "address"
        }
      ],
      "stateMutability": "view",
      "type": "function",
      "constant": true
    },
    {
      "inputs": [
        {
          "internalType": "address",
          "name": "identity",
          "type": "address"
        }
      ],
      "name": "identityOwner",
      "outputs": [
        {
          "internalType": "address",
          "name": "",
          "type": "address"
        }
      ],
      "stateMutability": "view",
      "type": "function",
      "constant": true
    },
    {
      "inputs": [
        {
          "internalType": "address",
          "name": "identity",
          "type": "address"
        },
        {
          "internalType": "address",
          "name": "newOwner",
          "type": "address"
        }
      ],
      "name": "changeOwner",
      "outputs": [],
      "stateMutability": "nonpayable",
      "type": "function"
    },
    {
      "inputs": [
        {
          "internalType": "address",
          "name": "identity",
          "type": "address"
        },
        {
          "internalType": "uint8",
          "name": "sigV",
          "type": "uint8"
        },
        {
          "internalType": "bytes32",
          "name": "sigR",
          "type": "bytes32"
        },
        {
          "internalType": "bytes32",
          "name": "sigS",
          "type": "bytes32"
        },
        {
          "internalType": "address",
          "name": "newOwner",
          "type": "address"
        }
      ],
      "name": "changeOwnerSigned",
      "outputs": [],
      "stateMutability": "nonpayable",
      "type": "function"
    },
    {
      "inputs": [
        {
          "internalType": "address",
          "name": "identity",
          "type": "address"
        },
        {
          "internalType": "bytes32",
          "name": "delegateType",
          "type": "bytes32"
        },
        {
          "internalType": "address",
          "name": "delegate",
          "type": "address"
        },
        {
          "internalType": "uint256",
          "name": "validity",
          "type": "uint256"
        }
      ],
      "name": "addDelegate",
      "outputs": [],
      "stateMutability": "nonpayable",
      "type": "function"
    },
    {
      "inputs": [
        {
          "internalType": "address",
          "name": "identity",
          "type": "address"
        },
        {
          "internalType": "bytes32",
          "name": "delegateType",
          "type": "bytes32"
        },
        {
          "internalType": "address",
          "name": "delegate",
          "type": "address"
        }
      ],
      "name": "revokeDelegate",
      "outputs": [],
      "stateMutability": "nonpayable",
      "type": "function"
    },
    {
      "inputs": [
        {
          "internalType": "address",
          "name": "identity",
          "type": "address"
        },
        {
          "internalType": "bytes32",
          "name": "delegateType",
          "type": "bytes32"
        },
        {
          "internalType": "address",
          "name": "delegate",
          "type": "address"
        }
      ],
      "name": "validDelegate",
      "outputs": [
        {
          "internalType": "bool",
          "name": "",
          "type": "bool"
        }
      ],
      "stateMutability": "view",
      "type": "function",
      "constant": true
    },
    {
      "inputs": [
        {
          "internalType": "address",
          "name": "identity",
          "type": "address"
        },
        {
          "internalType": "bytes32",
          "name": "name",
          "type": "bytes32"
        },
        {
          "internalType": "bytes",
          "name": "value",
          "type": "bytes"
        },
        {
          "internalType": "uint256",
          "name": "validity",
          "type": "uint256"
        }
      ],
      "name": "setAttribute",
      "outputs": [],
      "stateMutability": "nonpayable",
      "type": "function"
    },
    {
      "inputs": [
        {
          "internalType": "address",
          "name": "identity",
          "type": "address"
        },
        {
          "internalType": "bytes32",
          "name": "name",
          "type": "bytes32"
        },
        {
          "internalType": "bytes",
          "name": "value",
          "type": "bytes"
        }
      ],
      "name": "revokeAttribute",
      "outputs": [],
      "stateMutability": "nonpayable",
      "type": "function"
    }
  ],
  "bytecode": "0x608060405234801561001057600080fd5b50610c4a806100206000396000f3fe608060405234801561001057600080fd5b50600436106100b35760003560e01c80637ad4b0a4116100715780637ad4b0a4146101d857806380b29f7c146101eb5780638733d4e8146101fe578063a7068d6614610211578063f00d4b5d14610224578063f96d0f9f1461023757600080fd5b8062c023da146100b8578063022914a7146100cd5780630d44625b14610113578063240cf1fa14610152578063622b2a3c1461016557806370ae92d2146101b8575b600080fd5b6100cb6100c6366004610948565b610257565b005b6100f66100db36600461099f565b6000602081905290815260409020546001600160a01b031681565b6040516001600160a01b0390911681526020015b60405180910390f35b6101446101213660046109c1565b600160209081526000938452604080852082529284528284209052825290205481565b60405190815260200161010a565b6100cb6101603660046109fd565b61030e565b6101a86101733660046109c1565b6001600160a01b0392831660009081526001602090815260408083209483529381528382209290941681529252902054421090565b604051901515815260200161010a565b6101446101c636600461099f565b60036020526000908152604090205481565b6100cb6101e6366004610a5c565b610531565b6100cb6101f93660046109c1565b6105f4565b6100f661020c36600461099f565b6106b1565b6100cb61021f366004610abb565b6106e1565b6100cb610232366004610aff565b6107c4565b61014461024536600461099f565b60026020526000908152604090205481565b82610261816106b1565b6001600160a01b0316336001600160a01b03161461029a5760405162461bcd60e51b815260040161029190610b32565b60405180910390fd5b6001600160a01b0384166000818152600260205260408082205490517f18ab6b2ae3d64306c00ce663125f2bd680e441a098de1635bd7ad8b0d44965e4926102e792889288929190610ba0565b60405180910390a25050506001600160a01b03166000908152600260205260409020439055565b6000601960f81b81306003826103238b6106b1565b6001600160a01b0316815260208082019290925260409081016000205490516001600160f81b031995861692810192909252929093166021840152606090811b6bffffffffffffffffffffffff199081166022850152603684019290925288811b821660568401526a31b430b733b2a7bbb732b960a91b606a84015284901b16607582015260890160408051601f198184030181528282528051602091820120600080855291840180845281905260ff89169284019290925260608301879052608083018690529092509060019060a0016020604051602081039080840390855afa158015610416573d6000803e3d6000fd5b50505060206040510351905061042b876106b1565b6001600160a01b0316816001600160a01b03161461047f5760405162461bcd60e51b8152602060048201526011602482015270496e76616c6964207369676e617475726560781b6044820152606401610291565b6001600160a01b0387811660008181526020818152604080832080546001600160a01b031916958916958617905560028252918290205482519485529084015290917f38a5a6e68f30ed1ab45860a4afb34bcb2fc00f22ca462d249b8a8d40cda6f7a3910160405180910390a26001600160a01b03808816600090815260026020908152604080832043905592841682526003905290812080549161052383610be2565b919050555050505050505050565b8361053b816106b1565b6001600160a01b0316336001600160a01b03161461056b5760405162461bcd60e51b815260040161029190610b32565b6001600160a01b0385167f18ab6b2ae3d64306c00ce663125f2bd680e441a098de1635bd7ad8b0d44965e485856105a28642610bfb565b6001600160a01b038a16600090815260026020526040908190205490516105cc9493929190610ba0565b60405180910390a2505050506001600160a01b03166000908152600260205260409020439055565b826105fe816106b1565b6001600160a01b0316336001600160a01b03161461062e5760405162461bcd60e51b815260040161029190610b32565b6001600160a01b038481166000818152600160209081526040808320888452825280832094871680845294825280832083905583835260028252808320548151898152928301959095528101919091526060810192909252907f5a5084339536bcab65f20799fcc58724588145ca054bd2be626174b27ba156f7906080016102e7565b6001600160a01b0380821660009081526020819052604081205490911680156106da5792915050565b5090919050565b836106eb816106b1565b6001600160a01b0316336001600160a01b03161461071b5760405162461bcd60e51b815260040161029190610b32565b6107258242610bfb565b6001600160a01b0380871660008181526001602090815260408083208a84528252808320948916835293905291909120919091557f5a5084339536bcab65f20799fcc58724588145ca054bd2be626174b27ba156f785856107868642610bfb565b6001600160a01b038a8116600090815260026020908152604091829020548251968752949092169185019190915283015260608201526080016105cc565b816107ce816106b1565b6001600160a01b0316336001600160a01b0316146107fe5760405162461bcd60e51b815260040161029190610b32565b6001600160a01b0383811660008181526020818152604080832080546001600160a01b031916958816958617905560028252918290205482519485529084015290917f38a5a6e68f30ed1ab45860a4afb34bcb2fc00f22ca462d249b8a8d40cda6f7a3910160405180910390a250506001600160a01b03166000908152600260205260409020439055565b80356001600160a01b03811681146108a057600080fd5b919050565b634e487b7160e01b600052604160045260246000fd5b600082601f8301126108cc57600080fd5b813567ffffffffffffffff808211156108e7576108e76108a5565b604051601f8301601f19908116603f0116810190828211818310171561090f5761090f6108a5565b8160405283815286602085880101111561092857600080fd5b836020870160208301376000602085830101528094505050505092915050565b60008060006060848603121561095d57600080fd5b61096684610889565b925060208401359150604084013567ffffffffffffffff81111561098957600080fd5b610995868287016108bb565b9150509250925092565b6000602082840312156109b157600080fd5b6109ba82610889565b9392505050565b6000806000606084860312156109d657600080fd5b6109df84610889565b9250602084013591506109f460408501610889565b90509250925092565b600080600080600060a08688031215610a1557600080fd5b610a1e86610889565b9450602086013560ff81168114610a3457600080fd5b93506040860135925060608601359150610a5060808701610889565b90509295509295909350565b60008060008060808587031215610a7257600080fd5b610a7b85610889565b935060208501359250604085013567ffffffffffffffff811115610a9e57600080fd5b610aaa878288016108bb565b949793965093946060013593505050565b60008060008060808587031215610ad157600080fd5b610ada85610889565b935060208501359250610aef60408601610889565b9396929550929360600135925050565b60008060408385031215610b1257600080fd5b610b1b83610889565b9150610b2960208401610889565b90509250929050565b6020808252600e908201526d139bdd08185d5d1a1bdc9a5e995960921b604082015260600190565b6000815180845260005b81811015610b8057602081850181015186830182015201610b64565b506000602082860101526020601f19601f83011685010191505092915050565b848152608060208201526000610bb96080830186610b5a565b6040830194909452506060015292915050565b634e487b7160e01b600052601160045260246000fd5b600060018201610bf457610bf4610bcc565b5060010190565b80820180821115610c0e57610c0e610bcc565b9291505056fea2646970667358221220a69befe66fc8af9a5cd314ee35700d2e15983cfa221fdd8e1d580d668e555ca664736f6c63430008130033",
  "immutableReferences": {},
  "source": "// SPDX-License-Identifier: MIT\r\npragma solidity ^0.8.19;\r\n\r\ncontract EthrDIDRegistry {\r\n    \r\n    mapping(address => address) public owners;\r\n    mapping(address => mapping(bytes32 => mapping(address => uint))) public delegates;\r\n    mapping(address => uint) public changed;\r\n    mapping(address => uint) public nonce;\r\n\r\n    event DIDOwnerChanged(\r\n        address indexed identity,\r\n        address owner,\r\n        uint previousChange\r\n    );\r\n\r\n    event DIDDelegateChanged(\r\n        address indexed identity,\r\n        bytes32 delegateType,\r\n        address delegate,\r\n        uint validTo,\r\n        uint previousChange\r\n    );\r\n\r\n    event DIDAttributeChanged(\r\n        address indexed identity,\r\n        bytes32 name,\r\n        bytes value,\r\n        uint validTo,\r\n        uint previousChange\r\n    );\r\n\r\n    modifier onlyOwner(address identity) {\r\n        require(msg.sender == identityOwner(identity), \"Not authorized\");\r\n        _;\r\n    }\r\n\r\n    function identityOwner(address identity) public view returns(address) {\r\n        address owner = owners[identity];\r\n        if (owner != address(0)) {\r\n            return owner;\r\n        }\r\n        return identity;\r\n    }\r\n\r\n    function changeOwner(address identity, address newOwner) public onlyOwner(identity) {\r\n        owners[identity] = newOwner;\r\n        emit DIDOwnerChanged(identity, newOwner, changed[identity]);\r\n        changed[identity] = block.number;\r\n    }\r\n\r\n    function changeOwnerSigned(\r\n        address identity,\r\n        uint8 sigV,\r\n        bytes32 sigR,\r\n        bytes32 sigS,\r\n        address newOwner\r\n    ) public {\r\n        bytes32 hash = keccak256(\r\n            abi.encodePacked(\r\n                bytes1(0x19),\r\n                bytes1(0),\r\n                address(this),\r\n                nonce[identityOwner(identity)],\r\n                identity,\r\n                \"changeOwner\",\r\n                newOwner\r\n            )\r\n        );\r\n        address signer = ecrecover(hash, sigV, sigR, sigS);\r\n        require(signer == identityOwner(identity), \"Invalid signature\");\r\n        owners[identity] = newOwner;\r\n        emit DIDOwnerChanged(identity, newOwner, changed[identity]);\r\n        changed[identity] = block.number;\r\n        nonce[signer]++;\r\n    }\r\n\r\n    function addDelegate(\r\n        address identity,\r\n        bytes32 delegateType,\r\n        address delegate,\r\n        uint validity\r\n    ) public onlyOwner(identity) {\r\n        delegates[identity][delegateType][delegate] = block.timestamp + validity;\r\n        emit DIDDelegateChanged(\r\n            identity,\r\n            delegateType,\r\n            delegate,\r\n            block.timestamp + validity,\r\n            changed[identity]\r\n        );\r\n        changed[identity] = block.number;\r\n    }\r\n\r\n    function revokeDelegate(\r\n        address identity,\r\n        bytes32 delegateType,\r\n        address delegate\r\n    ) public onlyOwner(identity) {\r\n        delegates[identity][delegateType][delegate] = 0;\r\n        emit DIDDelegateChanged(\r\n            identity,\r\n            delegateType,\r\n            delegate,\r\n            0,\r\n            changed[identity]\r\n        );\r\n        changed[identity] = block.number;\r\n    }\r\n\r\n    function validDelegate(\r\n        address identity,\r\n        bytes32 delegateType,\r\n        address delegate\r\n    ) public view returns(bool) {\r\n        uint validity = delegates[identity][delegateType][delegate];\r\n        return (validity > block.timestamp);\r\n    }\r\n\r\n    function setAttribute(\r\n        address identity,\r\n        bytes32 name,\r\n        bytes memory value,\r\n        uint validity\r\n    ) public onlyOwner(identity) {\r\n        emit DIDAttributeChanged(\r\n            identity,\r\n            name,\r\n            value,\r\n            block.timestamp + validity,\r\n            changed[identity]\r\n        );\r\n        changed[identity] = block.number;\r\n    }\r\n\r\n    function revokeAttribute(\r\n        address identity,\r\n        bytes32 name,\r\n        bytes memory value\r\n    ) public onlyOwner(identity) {\r\n        emit DIDAttributeChanged(\r\n            identity,\r\n            name,\r\n            value,\r\n            0,\r\n            changed[identity]\r\n        );\r\n        changed[identity] = block.number;\r\n    }\r\n}",
  "sourcePath": "E:\\Blockchain Voltus\\Wallet\\Final\\truffle\\contracts\\EthrDIDRegistry.sol",
  "compiler": {
    "name": "solc",
    "version": "0.8.19+commit.7dd6d404.Emscripten.clang"
  },
  "schemaVersion": "3.4.16",
  "updatedAt": "2025-10-08T04:58:34.144Z",
  "networkType": "ethereum",
  "devdoc": {
    "kind": "dev",
    "methods": {},
    "version": 1
  },
  "userdoc": {
    "kind": "user",
    "methods": {},
    "version": 1
  }
}